:040000008A11EF2F43
:100A5800700871040319312D322D372D0130F00043
:100A68000030F100392DF001F1010800700871041F
:100A780003193F2D402D452D8312031306108617A9
:100A8800492D83120313061486170800C0308316F5
:100A98000313810060308F008501831203138501E1
:100AA8007830831603138600831203138601831696
:100AB80003139B01831203139F01831603139F01E2
:100AC80007309C009D018B01831203138D0183164F
:100AD80003138D0108000130F0000030F1008A1185
:100AE8003A258A11852D8A1100268A110C30831225
:100AF8000313B100AE30B000B00B802DB10B802DC8
:100B0800000083120313061A8A2D8B2D772D9A2D38
:100B18008A1100268A110C3083120313B100AE30FB
:100B2800B000B00B952DB10B952D00008312031367
:100B3800061E9F2DA02D8C2D0030F000F1008A118B
:100B48003A258A110800F501F31FAB2DAC2DB32D02
:100B5800F209F309F20A0319F30AF501F50AF11F7C
:100B6800B62DB72DBC2DF009F109F00A0319F10AC9
:100B7800700871040319C12DC22DF12DF401F40A76
:100B8800D02D01300310F00DF10DFF3E031DC62DD1
:100B98000130FF007F08F407F11FD32DD42DC52D98
:100BA80071087302031DDA2D70087202031CDD2D13
:100BB800DE2DE42D7008F2027108031CF303F30222
:100BC80001300310F10CF00CFF3E031DE52D013040
:100BD800F402031DF02DF12DD42D75080319F52D00
:100BE800F62DFB2DF209F309F20A0319F30A73082B
:100BF800F1007208F000080083120313861D052E09
:100C0800062E3A2E22082304031D0B2E0C2E3A2EF4
:100C1800200821040319112E132E0130142E003040
:100C2800FC00FD017C08A0007D08A1003A2E2908DF
:100C3800F9002808F8008A1140278A118312031343
:100C480086140611472E28082A02F8002908031CD2
:100C5800290A2B02F9008A1140278A1183120313EB
:100C680086100615472EA001A1011B2E2108003A67
:100C780003193F2E372E2008003A03191B2E013A7C
:100C88000319272E372E0310861903140030031872
:100C98000130FC00FD017C08F0007D08F1008A119C
:100CA8002C258A11710883120313A3007008A2006F
:100CB8000800F501F11F612E622E692EF009F10975
:100CC800F00A0319F10AF501F50AF31F6C2E6D2ECF
:100CD800762EF209F309F20A0319F30A0130FF002C
:100CE8007F08F506F601F7017008710403197D2ED7
:100CF8007E2EB52EF401F40A8C2E01300310F00D6F
:100D0800F10DFF3E031D822E0130FF007F08F4071E
:100D1800F11F8F2E902E812E01300310F60DF70D46
:100D2800FF3E031D912E71087302031D9D2E70084E
:100D38007202031CA02EA12EA82E7008F2027108C0
:100D4800031CF303F302761401300310F10CF00CCA
:100D5800FF3E031DA92E0130F402031DB42EB52E4B
:100D6800902E75080319B92EBA2EBF2EF609F70969
:100D7800F60A0319F70A7708F1007608F000080068
:100D88008A114A258A118A116F258A118312031341
:100D9800061FCF2ED02EDC2E26082704031DD52EA5
:100DA800D62EDC2E0130A8070318A90A0030A9079F
:100DB800861EDF2EE02EEC2E24082504031DE52ECA
:100DC800E62EEC2E0130AA070318AB0A0030AB0759
:100DD800861AEF2EF02E032F240825040319F52E6A
:100DE800F62E032F061BF92EFA2E032F26082704AA
:100DF800031DFF2E002F032F8A116F258A118A11D8
:100E080000268A11031083120313061B03140030F3
:100E180003180130B200B3013208F0003308F100C2
:100E28008A112C258A11710883120313A7007008F0
:100E3800A6000310861A0314003003180130B2000C
:100E4800B3013208F0003308F1008A112C258A1109
:100E5800710883120313A5007008A4000C308312D4
:100E68000313B300AE30B200B20B382FB30B382FD8
:100E78000000CA2E8A1100280A30F0000030F10064
:100E88007908F3007808F2008A11A7258A117108F9
:100E980083120313AD007008AC000A30F000003074
:100EA800F1007908F3007808F2008A115D268A11AA
:100EB800710883120313AF007008AE002C18652F59
:100EC800692F8312031305146C2F83120313051063
:100ED8002D08FB002C08FA007B0DFB0CFA0C7A1885
:100EE800762F7A2F8312031385147D2F8312031311
:100EF80085102D08FB002C08FA007B0DFB0CFA0C62
:100F08007B0DFB0CFA0C7A188A2F8E2F8312031391
:100F18000515912F8312031305112D08FB002C08CA
:100F2800FA007B0DFB0CFA0C7B0DFB0CFA0C7B0D0D
:100F3800FB0CFA0C7A18A12FA52F83120313851521
:100F4800A82F8312031385112E18AB2FAF2F8312EE
:100F580003130516B22F8312031305122F08FB0083
:100F68002E08FA007B0DFB0CFA0C7A18BC2FC02F48
:100F7800831203138516C32F8312031385122F08B8
:100F8800FB002E08FA007B0DFB0CFA0C7B0DFB0C0A
:100F9800FA0C7A18D02FD42F831203130517D72FE2
:100FA8008312031305132F08FB002E08FA007B0D8C
:100FB800FB0CFA0C7B0DFB0CFA0C7B0DFB0CFA0CF2
:100FC8007A18E72FEB2F831203138517EE2F83125E
:100FD80003138513080083120313A001A101A201C2
:100FE800A301A401A501A601A701A801A901AA01BD
:080FF800AB0183018A11C42E34
:04400E00103FFF3F21
:00000001FF
