:040000008A11F62F3C
:100A060083120313061486130800831203130610B9
:100A1600861708008312031306148617080064005D
:100A26008001840A0406031900340406132D700895
:100A3600710403191F2D202D252D0130F0000030E3
:100A4600F100272DF001F1010800C03083160313D1
:100A5600810060308F008501831203138501783091
:100A6600831603138600831203138601831603136A
:100A76009B01831203139F01831603139F01073003
:100A86009C009D018B01831203138D0183160313B2
:100A96008D0108008A1108258A115F2D8A115326B7
:100AA6008A11073083120313B7007C30B600B60BE9
:100AB6005A2DB70B5A2D000083120313061E642D00
:100AC600652D512D8A1103258A1183120313B8014E
:100AD600B9018A1153268A11073083120313B7000E
:100AE6007C30B600B60B752DB70B752D00000130A6
:100AF60083120313B8070318B90A0030B907390877
:100B0600803AFF0080307F02031D8B2D593038025A
:100B1600031C8E2D8F2D6C2D8A110D258A11080030
:100B2600F501F31F972D982D9F2DF209F309F20A6F
:100B36000319F30AF501F50AF11FA22DA32DA82D1D
:100B4600F009F109F00A0319F10A70087104031992
:100B5600AD2DAE2DDD2DF401F40ABC2D01300310B0
:100B6600F00DF10DFF3E031DB22D0130FF007F0891
:100B7600F407F11FBF2DC02DB12D71087302031D9F
:100B8600C62D70087202031CC92DCA2DD02D7008FF
:100B9600F2027108031CF303F30201300310F10C97
:100BA600F00CFF3E031DD12D0130F402031DDC2D98
:100BB600DD2DC02D75080319E12DE22DE72DF20973
:100BC600F309F20A0319F30A7308F1007208F00038
:100BD6000800F501F11FF02DF12DF82DF009F109AE
:100BE600F00A0319F10AF501F50AF31FFB2DFC2D96
:100BF600052EF209F309F20A0319F30A0130FF0080
:100C06007F08F506F601F7017008710403190C2E2A
:100C16000D2E442EF401F40A1B2E01300310F00DA4
:100C2600F10DFF3E031D112E0130FF007F08F40772
:100C3600F11F1E2E1F2E102E01300310F60DF70D7C
:100C4600FF3E031D202E71087302031D2C2E700813
:100C56007202031C2F2E302E372E7008F2027108F6
:100C6600031CF303F302761401300310F10CF00CAD
:100C7600FF3E031D382E0130F402031D432E442E81
:100C86001F2E75080319482E492E4E2EF609F70910
:100C9600F60A0319F70A7708F1007608F00008004B
:100CA600031083120313861903140030031801304E
:100CB600FC00FD017C08F0007D08F1008A111A2570
:100CC6008A11710883120313A3007008A200220878
:100CD600230403196F2E702EA42E28082904031D41
:100CE600752E762EA42E2008210403197B2E7D2E28
:100CF60001307E2E0030FC00FD017C08A0007D083E
:100D0600A100A42E2F08F9002E08F8008A11472703
:100D16008A118312031386140611B12E2E0830028F
:100D2600F8002F08031C2F0A3102F9008A11472701
:100D36008A118312031386100615B12EA001A10194
:100D4600852E2108003A0319A92EA12E2008003A63
:100D56000319852E013A0319912EA12E2308F100BD
:100D66002208F0008A111A258A11710883120313CA
:100D7600A9007008A80008008A1128258A118A117E
:100D86004D258A11031083120313061B031400302A
:100D960003180130BA00BB013A08F0003B08F10025
:100DA6008A111A258A11710883120313A700700885
:100DB600A6000310861A0314003003180130BA0087
:100DC600BB013A08F0003B08F1008A111A258A1186
:100DD600710883120313A5007008A40026082704CF
:100DE600031DF62EF72E062F2C082D040319FC2EB4
:100DF600FD2E062F0130AE070318AF0A0030AF07ED
:100E06008A114D258A118312031324082504031D14
:100E16000D2F0E2F1A2F2A082B040319132F142F08
:100E26001A2F0130B0070318B10A0030B1078A1132
:100E360053268A11831203132708F1002608F000AF
:100E46008A111A258A11710883120313AD007008DE
:100E5600AC002508F1002408F0008A111A258A1131
:100E6600710883120313AB007008AA0007308312BF
:100E76000313BB007C30BA00BA0B3F2FBB0B3F2FCE
:100E86000000C52E8A1100280A30F0000030F1005B
:100E96007908F3007808F2008A1193258A117108FF
:100EA60083120313B3007008B2000A30F00000305A
:100EB600F1007908F3007808F2008A11EC258A110E
:100EC600710883120313B5007008B40032186C2F32
:100ED600702F831203130514732F83120313051047
:100EE6003308FB003208FA007B0DFB0CFA0C7A186B
:100EF6007D2F812F831203138514842F83120313EE
:100F060085103308FB003208FA007B0DFB0CFA0C47
:100F16007B0DFB0CFA0C7A18912F952F8312031375
:100F26000515982F8312031305113308FB003208A9
:100F3600FA007B0DFB0CFA0C7B0DFB0CFA0C7B0DFF
:100F4600FB0CFA0C7A18A82FAC2F83120313851505
:100F5600AF2F8312031385113418B22FB62F8312C5
:100F660003130516B92F8312031305123508FB0068
:100F76003408FA007B0DFB0CFA0C7A18C32FC72F26
:100F8600831203138516CA2F83120313851235089D
:100F9600FB003408FA007B0DFB0CFA0C7B0DFB0CF6
:100FA600FA0C7A18D72FDB2F831203130517DE2FBF
:100FB6008312031305133508FB003408FA007B0D72
:100FC600FB0CFA0C7B0DFB0CFA0C7B0DFB0CFA0CE4
:100FD6007A18EE2FF22F831203138517F52F83123B
:100FE60003138513080083132030840032308A11DE
:0A0FF60012258A1183018A11BF2E13
:04400E00103FFF3F21
:00000001FF
