:040000008A11EF2F43
:100B7200700871040319BE2DBF2DC42D0130F00081
:100B82000030F100C62DF001F10108007008710477
:100B92000319CC2DCD2DD22D8312031306108617E7
:100BA200D62D83120313061486170800C03083164D
:100BB2000313810060308F008501831203138501C6
:100BC200783083160313860083120313860183167B
:100BD20003139B01831203139F01831603139F01C7
:100BE20007309C009D018B01831203138D01831634
:100BF20003138D0108000130F0000030F1008A116A
:100C0200C7258A11813083120313AF009030AE00E2
:100C1200AE0B092EAF0B092E00001D2E8A11832662
:100C22008A110C3083120313AF00AE30AE00AE0B4C
:100C3200182EAF0B182E000083120313061E222E4D
:100C4200232E0F2E0030F000F1008A11C7258A11E1
:100C52000800F501F31F2E2E2F2E362EF209F3096E
:100C6200F20A0319F30AF501F50AF11F392E3A2E99
:100C72003F2EF009F109F00A0319F10A7008710414
:100C82000319442E452E742EF401F40A532E01301A
:100C92000310F00DF10DFF3E031D492E0130FF0040
:100CA2007F08F407F11F562E572E482E7108730243
:100CB200031D5D2E70087202031C602E612E672ECA
:100CC2007008F2027108031CF303F30201300310EF
:100CD200F10CF00CFF3E031D682E0130F402031DDF
:100CE200732E742E572E75080319782E792E7E2EA8
:100CF200F209F309F20A0319F30A7308F100720800
:100D0200F000080083120313861D882E892EB92E47
:100D120022082304031D8E2E8F2EB92E20082104B3
:100D22000319942E962E0130972E0030AC00AD019F
:100D32002C08A0002D08A100B92E2908F7002808C8
:100D4200F6008A1144278A118312031386140611AE
:100D5200C62E2B08F7002A08F6008A1144278A11AA
:100D62008312031386100615C62EA001A1019E2E22
:100D72002108003A0319BE2EB62E2008003A0319A4
:100D82009E2E013A0319AA2EB62E031086190314B9
:100D9200003003180130AC00AD012C08F0002D0822
:100DA200F1008A11B9258A11710883120313A30075
:100DB2007008A20008008A11D7258A118A11FC2521
:100DC2008A1183120313061FE72EE82EF42E26083B
:100DD2002704031DED2EEE2EF42E0130A807031872
:100DE200A90A0030A907861EF72EF82E072F24081D
:100DF2002504031DFD2EFE2E072F0130AA0703181E
:100E0200AB0A0030AB078A11FC258A118A118326AE
:100E12008A11031083120313061B031400300318F4
:100E22000130B000B1013008F0003108F1008A1140
:100E3200B9258A11710883120313A7007008A6004E
:100E42000310861A0314003003180130B000B101F8
:100E52003008F0003108F1008A11B9258A117108B1
:100E620083120313A5007008A4000C30831203132D
:100E7200B100AE30B000B00B3C2FB10B3C2F0000E4
:100E8200E22E8A1100280A30F0000030F1007708C3
:100E9200F3007608F2008A112A268A117108FB00F3
:100EA2007008FA006430F0000030F1007708F300B7
:100EB2007608F2008A112A268A117108FD0070084C
:100EC200FC007A18652F692F8312031305146C2F07
:100ED2008312031305107B08F9007A08F800790DD4
:100EE200F90CF80C7818762F7A2F831203138514D5
:100EF2007D2F8312031385107B08F9007A08F8000E
:100F0200790DF90CF80C790DF90CF80C78188A2F78
:100F12008E2F831203130515912F831203130511CC
:100F22007B08F9007A08F800790DF90CF80C790DB4
:100F3200F90CF80C790DF90CF80C7818A12FA52FE3
:100F4200831203138515A82F8312031385117C18AE
:100F5200AB2FAF2F831203130516B22F8312031385
:100F620005127D08F9007C08F800790DF90CF80CDF
:100F72007818BC2FC02F831203138516C32F831238
:100F8200031385127D08F9007C08F800790DF90C2D
:100F9200F80C790DF90CF80C7818D02FD42F831295
:100FA20003130517D72F8312031305137D08F900C6
:100FB2007C08F800790DF90CF80C790DF90CF80C95
:100FC200790DF90CF80C7818E72FEB2F8312031325
:100FD2008517EE2F83120313851308008312031360
:100FE200A001A101A201A301A401A501A601A701DB
:0E0FF200A801A901AA01AB0183018A11DC2E1E
:08400000FF3FFF3FFF3FFF3FC0
:04400E00103FFF3F21
:00000001FF
