:040000008A11FD2F35
:100ECC00C03083160313810060308F0085018312BC
:100EDC00031385011030831603138600831203134A
:100EEC008601831603139B01831203139F01831640
:100EFC0003139F0107309C009D018B018312031388
:100F0C008D01831603138D0108008A1166278A113F
:100F1C00F501F601F301F40183120313061A972F5E
:100F2C00982FA92F73087404031D9D2F9E2FA92F92
:100F3C000130F5070318F60A0030F6070130F3000C
:100F4C000030F400AF2F061EAC2FAD2FAF2FF301E6
:100F5C00F4017608803AFF0080307F02031DB82F21
:100F6C0005307502031CBB2FBC2FD72FF501F601E2
:100F7C00D72F0F30831203138500ED2F0E30831201
:100F8C0003138500ED2F0C30831203138500ED2F16
:100F9C000830831203138500ED2F83120313850190
:100FAC00ED2F7608003A0319DC2FED2F7508003A67
:100FBC000319BF2F013A0319C42F033A0319C92F80
:100FCC00013A0319CE2F073A0319D32FED2F023014
:100FDC00F2000330F1006D30F000F00BF32FF10B49
:100FEC00F32FF20BF32FFA2F922F8A110028830183
:040FFC008A118B2F9C
:08400000FF3FFF3FFF3FFF3FC0
:04400E00103FFF3F21
:00000001FF
