:040000008A11EF2F43
:100A0800700871040319092D0A2D0F2D0130F0000B
:100A18000030F100112DF001F10108007008710497
:100A28000319172D182D1D2D831203130610861771
:100A38002D2D023070067104031D232D242D292D20
:100A480083120313061486132D2D83120313061421
:100A580086170800C03083160313810060308F00AA
:100A680085018312031385017830831603138600EA
:100A7800831203138601831603139B018312031346
:100A88009F01831603139F0107309C009D018B0172
:100A9800831203138D01831603138D010800F501DA
:100AA800F31F572D582D5F2DF209F309F20A031988
:100AB800F30AF501F50AF11F622D632D682DF0097F
:100AC800F109F00A0319F10A7008710403196D2D70
:100AD8006E2D9D2DF401F40A7C2D01300310F00DCC
:100AE800F10DFF3E031D722D0130FF007F08F40752
:100AF800F11F7F2D802D712D71087302031D862D26
:100B080070087202031C892D8A2D902D7008F2023C
:100B18007108031CF303F30201300310F10CF00C0D
:100B2800FF3E031D912D0130F402031D9C2D9D2DC8
:100B3800802D75080319A12DA22DA72DF209F309FF
:100B4800F20A0319F30A7308F1007208F0000800AA
:100B580083120313861DB12DB22DE62D220823041E
:100B6800031DB72DB82DE62D200821040319BD2D2E
:100B7800BF2D0130C02D0030FC00FD017C08A00015
:100B88007D08A100E62D2908F9002808F8008A1137
:100B980040278A118312031386140611F32D28089F
:100BA8002A02F8002908031C290A2B02F9008A11D5
:100BB80040278A118312031386100615F32DA0010E
:100BC800A101C72D2108003A0319EB2DE32D2008B8
:100BD800003A0319C72D013A0319D32DE32D031049
:100BE80086190314003003180130FC00FD017C084D
:100BF800F0007D08F1008A1104258A11710883121A
:100C08000313A3007008A20008000130F0000030B0
:100C1800F1008A1112258A111F2E8A11AC258A111A
:100C2800073083120313B1007C30B000B00B1A2ECA
:100C3800B10B1A2E000083120313061A242E252E38
:100C4800112E342E8A11AC258A1107308312031312
:100C5800B1007C30B000B00B2F2EB10B2F2E00004E
:100C680083120313061E392E3A2E262E0230F00068
:100C78000030F1008A1112258A1183120313B20180
:100C8800B3018A11AC258A11073083120313B1000E
:100C98007C30B000B00B4E2EB10B4E2E0000013050
:100CA80083120313B2070318B30A0030B3073308DB
:100CB800803AFF0080307F02031D642E46303202E6
:100CC800031C672E682E452E0030F000F1008A11B3
:100CD80012258A110800F501F11F732E742E7B2E40
:100CE800F009F109F00A0319F10AF501F50AF31FF1
:100CF8007E2E7F2E882EF209F309F20A0319F30AD1
:100D08000130FF007F08F506F601F701700871044D
:100D180003198F2E902EC72EF401F40A9E2E01304F
:100D28000310F00DF10DFF3E031D942E0130FF005E
:100D38007F08F407F11FA12EA22E932E0130031075
:100D4800F60DF70DFF3E031DA32E71087302031D58
:100D5800AF2E70087202031CB22EB32EBA2E700882
:100D6800F2027108031CF303F30276140130031036
:100D7800F10CF00CFF3E031DBB2E0130F402031DE5
:100D8800C62EC72EA22E75080319CB2ECC2ED12E17
:100D9800F609F709F60A0319F70A7708F100760841
:100DA800F00008008A112E258A118A1109268A1155
:100DB80083120313061BE12EE22EF12E26082704C8
:100DC8000319E72EE82EF12E0130A8070318A90A07
:100DD8000030A9078A1109268A1183120313861A7B
:100DE800F62EF72E032F240825040319FC2EFD2EBA
:100DF800032F0130AA070318AB0A0030AB078A118A
:100E0800AC258A11031083120313061B0314003048
:100E180003180130B400B5013408F0003508F100BA
:100E28008A1104258A11710883120313A700700818
:100E3800A6000310861A0314003003180130B4000A
:100E4800B5013408F0003508F1008A1104258A112B
:100E5800710883120313A5007008A40007308312D9
:100E68000313B5007C30B400B40B382FB50B382F02
:100E78000000DC2E8A1100280A30F0000030F10052
:100E88007908F3007808F2008A1153258A1171084D
:100E980083120313AD007008AC000A30F000003074
:100EA800F1007908F3007808F2008A116F268A1198
:100EB800710883120313AF007008AE002C18652F59
:100EC800692F8312031305146C2F83120313051063
:100ED8002D08FB002C08FA007B0DFB0CFA0C7A1885
:100EE800762F7A2F8312031385147D2F8312031311
:100EF80085102D08FB002C08FA007B0DFB0CFA0C62
:100F08007B0DFB0CFA0C7A188A2F8E2F8312031391
:100F18000515912F8312031305112D08FB002C08CA
:100F2800FA007B0DFB0CFA0C7B0DFB0CFA0C7B0D0D
:100F3800FB0CFA0C7A18A12FA52F83120313851521
:100F4800A82F8312031385112E18AB2FAF2F8312EE
:100F580003130516B22F8312031305122F08FB0083
:100F68002E08FA007B0DFB0CFA0C7A18BC2FC02F48
:100F7800831203138516C32F8312031385122F08B8
:100F8800FB002E08FA007B0DFB0CFA0C7B0DFB0C0A
:100F9800FA0C7A18D02FD42F831203130517D72FE2
:100FA8008312031305132F08FB002E08FA007B0D8C
:100FB800FB0CFA0C7B0DFB0CFA0C7B0DFB0CFA0CF2
:100FC8007A18E72FEB2F831203138517EE2F83125E
:100FD80003138513080083120313A001A101A201C2
:100FE800A301A401A501A601A701A801A901AA01BD
:080FF800AB0183018A11D62E22
:04400E00103FFF3F21
:00000001FF
