:040000008A11FD2F35
:100F6600C03083160313810060308F008501831221
:100F76000313850183160313860183120313860167
:100F8600831603139B01831203139F018316031316
:100F96009F0107309C009D018B01831203138D0175
:100FA600831603138D0108008A11B3278A11AA300C
:100FB6008312031385000230F2004530F100A93098
:100FC600F000F00BE42FF10BE42FF20BE42FEB2FE4
:100FD60055308312031385000230F2004530F100CC
:100FE600A930F000F00BF52FF10BF52FF20BF52FD2
:0A0FF600FC2FDA2F83018A11D72F98
:04400E0010FFFFFFA1
:00000001FF
