:040000008A11FD2F35
:100F2200C03083160313810060308F008501831265
:100F320003138501103083160313860083120313F3
:100F42008601831603139B01831203139F018316E9
:100F520003139F0107309C009D018B018312031331
:100F62008D01831603138D0108008A1191278A11BE
:100F7200F301F401F501F60183120313061EC22FD9
:100F8200C32FE22F73087404031DC82FC92FE22F49
:100F92000130F5070318F60A0030F6077608803AA2
:100FA200FF0080307F02031DD82F10307502031C12
:100FB200DB2FDC2FDE2FF501F601750883120313F8
:100FC2008500061EE52FE62FEB2F0130F3000030DF
:100FD200F400ED2FF301F4010230F2000330F100CE
:100FE2006D30F000F00BF32FF10BF32FF20BF32F18
:0E0FF200FA2FBD2F8A11002883018A11B62F15
:08400000FF3FFF3FFF3FFF3FC0
:04400E00103FFF3F21
:00000001FF
